:020000040800F2
:1000000070060020350200081B0D0008910C000846
:10001000190D00082B040008291600080000000034
:100020000000000000000000000000001F0D00089C
:100030002D040008000000001D0D00082914000810
:100040004F0200084F0200084F0200084F0200084C
:100050004F0200084F0200084F0200084F0200083C
:100060004F0200084F0200084F0200084F0200082C
:100070004F0200084F0200084F0200084F0200081C
:100080004F0200084F0200084F0200080000000065
:100090000000000000000000000000004F02000807
:1000A0004F0200084F0200084F0200084F020008EC
:1000B0004F0200084F0200084F0200084F020008DC
:1000C0004F0200084F0200084F0200084F020008CC
:1000D0004F0200084F0200084F0200080000000015
:1000E0004F0200084F0200084F0200080000000005
:1000F0000000000000000000000000004F020008A7
:10010000000000004F0200084F0200084F020008E4
:1001100000000000000000000000000000000000DF
:100120004F0200084F0200084F0200084F0200086B
:100130004F02000800000000000000000000000066
:100140000000000000000000000000004F02000856
:100150004F0200084F0200084F0200084F0200083B
:100160004F0200084F0200080000000000000000DD
:10017000000000000000000000000000000000007F
:10018000000000004F020008000000000000000016
:100190004F02000800F002F800F03CF80AA090E8D6
:1001A000000C82448344AAF10107DA4501D100F032
:1001B00031F8AFF2090EBAE80F0013F0010F18BFC3
:1001C000FB1A43F001031847E0140000001500007B
:1001D000103A24BF78C878C1FAD8520724BF30C873
:1001E00030C144BF04680C60704700000023002445
:1001F00000250026103A28BF78C1FBD8520728BF37
:1002000030C148BF0B6070471FB501F03FFA1FBDFA
:1002100010B510BD00F0CFF81146FFF7F5FF01F063
:1002200014FA00F0EDF803B4FFF7F2FF03BC00F09E
:10023000F5F800000948804709480047FEE7FEE757
:10024000FEE7FEE7FEE7FEE7FEE7FEE7FEE7FEE786
:1002500004480549054A064B70470000AD140008E4
:100260009501000870000020700600207002002038
:100270007002002053EA020C00F069802DE9F04B77
:100280004FF00006002B1FBFB3FA83F503FA05F405
:1002900024FA05F65E4012BF1643B2FA82F502FA5E
:1002A00005F4C5F120051EBF22FA05FC44EA0C0442
:1002B000203556EA044C4FEA144418BF641C4FF032
:1002C00000084FF00009904271EB030C39D300296C
:1002D00019BFB1FA81F701FA07F6B0FA80F700FA10
:1002E00007F6C7F120071EBF20FA07FC46EA0C06F6
:1002F0002037B6FBF4FCA7EB0507103F07F01F0BF8
:10030000CBF120060CFA0BFB2CFA06F644BFB346E1
:100310000026202FA4BF5E464FF0000B5BEA060CC0
:1003200008BF4FF0010B19EB0B09ABFB027C48EB4C
:100330000608C01B06FB02CC0BFB03CC71EB0C01C7
:10034000C1E70B46024641464846BDE8F08B13B56F
:100350004FF000004FF00001AFF30080BDE81C40FB
:1003600070474FF0000200B5134694469646203978
:1003700022BFA0E80C50A0E80C50B1F12001BFF45E
:10038000F7AF090728BFA0E80C5048BF0CC05DF8C4
:1003900004EB890028BF40F8042B08BF704748BF12
:1003A00020F8022B11F0804F18BF00F8012B704786
:1003B000704770477047754600F02CF8AE46050050
:1003C0006946534620F00700854618B020B5FFF770
:1003D0003FFFBDE820404FF000064FF000074FF010
:1003E00000084FF0000B21F00701AC46ACE8C00953
:1003F000ACE8C009ACE8C009ACE8C0098D4670475C
:1004000010B50446AFF300802046BDE81040FFF76A
:100410000ABF000000487047100000200149182062
:10042000ABBEFEE7260002007047FEE77047000003
:1004300070B5044600F004F90546601C02D004487B
:100440000078044400F0FCF8401BA042FAD370BDD1
:10045000000000202DE9F84FDFF8B8A100220124A8
:100460000AF1040B03254FF00F090BF1040E00BF36
:100470000B6804FA02F63340B34273D10F7907F0E8
:100480000307012F01D0022F16D187684FEA4208D7
:1004900005FA08FC27EA0C07D1F80CC00CFA08FC96
:1004A0004CEA070CC0F808C04768B7430E79C6F39A
:1004B000001696403E4346600E79F643B6070DD0CF
:1004C000C768560005FA06FC27EA0C07D1F808C0F1
:1004D0000CFA06FC4CEA070CC0F80CC00E7906F0CA
:1004E0000306022E10D1D60800EB8608D8F820604B
:1004F00057074FEAD76C09FA0CF7BE430F6907FAA2
:100500000CF73743C8F8207006684FEA420C05FA2A
:100510000CF7BE430F7907F0030707FA0CF73743D0
:1005200007604E6816F4403F6DD03B4E376847F485
:1005300080473760366822F0030706F4804600964D
:10054000364E07EB060CDCF8086897073F0F09FAF0
:1005500007F826EA0806DFF8C880404503D14FF0C7
:1005600000081EE04FE0DFF8BC80404502D14FF0AC
:10057000010816E0DFF8B080404502D14FF00208D4
:100580000FE0DFF8A880404502D14FF0030808E0F3
:10059000DFF89C80404502D14FF0040801E04FF0A5
:1005A000070808FA07F848EA0608CCF80888DAF8D5
:1005B00000605746D1F804C09E435FEACC3C00D5AA
:1005C0001E433E60DBF800605F46D1F804C09E43E6
:1005D0005FEA8C3C00D51E433E60DEF80060774643
:1005E000D1F804C09E435FEACC2C00D51E433E6088
:1005F000084F0C373E68D1F804C09E435FEA8C2C4C
:1006000000D51E433E60521C102AFFF431AFBDE8F6
:10061000F88F0000003C01404438024000300140A7
:10062000000002400004024000080240000C0240AA
:10063000001002400AB1816170470904FBE7000025
:10064000014880687047000000000020024881686F
:100650000278114481607047000000200B4810B5FB
:10066000016841F400710160016841F4806101603A
:10067000016841F480710160032000F061F80F20EF
:1006800000F006F800F024F8002010BD003C024005
:1006900070B50D4D04464FF47A712878B1FBF0F037
:1006A0000A490968B1FBF0F000F0DEFA48B9102CF5
:1006B00007D200222146501E00F022F800206C6074
:1006C00070BD012070BD0000000000200C00002063
:1006D0000A4808B5016841F480410160006800F4EF
:1006E000804000900548001F016841F08051016082
:1006F000006800F08050009008BD000044380240BF
:10070000F0B40E4B1B680C46C3F30223C3F107057C
:10071000042D00D90425191D072901D2002300E06A
:10072000DB1E012606FA05F1491E214099409E4034
:10073000761E16403143F0BC00F077BF0CED00E0B0
:10074000064900F0070208684FF6FF03184040EA28
:100750000220034A10430860704700000CED00E0DF
:100760000000FA052DE9F0470E46050065D0DFF8D8
:100770001481D8F80000F7B200F00700B04207D2A9
:1007800088F80070D8F8000000F00700B04254D19B
:1007900028683D4C810712D5400703D5206840F4F6
:1007A000E05020602878000703D5206840F46040BE
:1007B00020602068A96820F0F000084320602878B5
:1007C000C0072DD0304968680839012812D00228A6
:1007D00013D0032811D00968890700292DDA216870
:1007E00021F0030101432160FFF72AFF814641F216
:1007F000883A0EE009688903EFE709688901ECE7A8
:10080000FFF71EFFA0EB0901514502D90320BDE807
:10081000F0872068696800F00C00B0EB810FEFD121
:10082000D8F80010404601F00701B14207D907701F
:10083000006800F00700B04201D00120E7E7287807
:10084000400705D52068E96820F4E050084320609F
:100850002878000706D52068296920F4604040EA1E
:10086000C100206000F018F82168084AC1F30311A4
:10087000515CC8400649086006480068FFF708FF59
:100880000020C4E7003C02400838024096160008E9
:100890000C00002004000020154810B5006810F07E
:1008A0000C02144813D01449042A0FD0082A0ED180
:1008B0000F4C241F2268236802F03F025B0207D519
:1008C0002068C0F38810A0FB010106E0084610BDB7
:1008D0002168C1F38811A1FB00010023FFF7CAFCC6
:1008E0002168C1F30141491C4900B0FBF1F010BD82
:1008F000083802400024F40040787D012DE9F84FCB
:1009000004006ED02078DFF84C93C007A9F10405ED
:100910004AD009F104000168C1F38101012908D01E
:100920000068C0F3810002280AD1D9F80000400213
:1009300006D52868800337D560680028E1D033E009
:100940006068B0F5803F10D0B0F5A02F286810D0B7
:1009500020F480302860286820F4802028606068B7
:10096000A8B1FFF76DFE06460DE0286840F4803020
:10097000F4E740F480202860F7E700BFFFF760FE4F
:10098000801B642873D828688003F7D50CE0FFF734
:1009900057FE064605E000BFFFF752FE801B6428A5
:1009A000F0D828688003F7D42078DFF8AC8280077D
:1009B0004FF0000A3ED5A748001D016811F00C0F4A
:1009C00008D00068C0F3810002280BD1D9F80000DC
:1009D000400207D42868800716D5E068012800D1B6
:1009E00012E033E1E068B8B10120C8F80000FFF779
:1009F00027FE064605E000BFFFF722FE801B022807
:100A0000C0D828688007F7D52868216920F0F80049
:100A100040EAC10028600DE0C8F800A0FFF710FE12
:100A2000064604E0FFF70CFE801B02281FD828684A
:100A30008007F7D42078000722D5864F8748616960
:100A4000703771B101210160FFF7FAFD064604E03D
:100A5000FFF7F6FD801B022809D838688007F7D514
:100A60000EE0C0F800A0FFF7EBFD064605E082E0CF
:100A7000FFF7E6FD801B02287DD838688007F7D491
:100A80002078400768D5DFF8CCB100270BF13C0B8C
:100A9000DBF80000C0000BD4DBF8001041F08051FF
:100AA000CBF80010DBF80000012700F08050009028
:100AB0006B4E3068C00510D4306840F480703060F0
:100AC000FFF7BEFD009005E0FFF7BAFD0099401A60
:100AD000022850D83068C005F6D55E4EA0686C3646
:100AE00001280FD00528306810D020F001003060B8
:100AF000306820F004003060A068B8B1FFF7A0FDB6
:100B000000900FE0306840F00100F4E740F004008E
:100B10003060F7E7FFF794FD0099411A41F2883001
:100B2000814266D830688007F4D50EE0FFF788FD73
:100B3000009007E0FFF784FD0099411A41F28830E8
:100B4000814256D830688007F4D42FB1DBF800100A
:100B500021F08051CBF80010A069C8B33D49091DB0
:100B60000968C1F3810102294AD00228504607D002
:100B7000C8F8600000E03CE0FFF762FD04463BE09F
:100B80004746C8F86000FFF75BFD064605E000BF7A
:100B9000FFF756FD801B02282BD828688001F7D468
:100BA000D4E907010843A16A2E4A490802EB014132
:100BB000626A41EA8211084394F82C1040EA01610C
:100BC000C9F8001001203866FFF73AFD044606E038
:100BD0003EE000BFFFF734FD001B022809D828685B
:100BE0008001F7D534E000BFFFF72AFD001B022883
:100BF00002D90320BDE8F88F28688001F4D427E0EB
:100C00000128F7D0D9F80000E26900F48001914290
:100C10001CD1226A00F03F01914217D147F6C07102
:100C2000626A0140B1EB821F10D1A26A4FF0FF331C
:100C300000F4403103EB5202B1EB024F06D194F8BD
:100C40002C1000F07060B0EB016F01D00120D1E7F3
:100C50000020CFE70438024000004742800E4742A0
:100C6000007000400000FFFF10B5401EB0F1807F13
:100C700001D3012010BD4FF0E02460610F21601707
:100C800000F0D3FC0020A06107202061002010BDEF
:100C9000FEE700002DE9F04186B014216846FFF719
:100CA00060FB1A480024016841F0100101600168EE
:100CB00001F010010591016841F008010160006830
:100CC000134F00F008004FF6FF75059022462946A5
:100CD0003846FFF7AFFCDFF83C800022294640464B
:100CE000FFF7A8FC01260095CDE901646946384666
:100CF0000394FFF7AFFB0095CDE9016469464046D8
:100D00000394FFF7A7FB06B0BDE8F081303802403E
:100D100000100240000C0240FEE7FEE770477047FB
:100D20002DE9F05F574C012211462046FFF782FC67
:100D3000012202212046FFF77DFC012204212046EA
:100D4000FFF778FC012208212046FFF773FC0122FF
:100D500010212046FFF76EFC012220212046FFF7DC
:100D600069FC012240212046FFF764FC012280211A
:100D70002046FFF75FFC0122150229462046FFF7B7
:100D800059FC0122560231462046FFF753FC01224E
:100D9000970239462046FFF74DFC4FF400680122C8
:100DA00041462046FFF746FC4FF480590122494650
:100DB0002046FFF73FFC4FF4005A012251462046DF
:100DC000FFF738FC4FF4804B012259462046FFF7CD
:100DD00031FC0122D1032046FFF72CFC2A4C0122D2
:100DE00011462046FFF726FC012202212046FFF78C
:100DF00021FC012204212046FFF71CFC01220821CE
:100E00002046FFF717FC012210212046FFF712FCB5
:100E1000012220212046FFF70DFC0122402120461F
:100E2000FFF708FC012280212046FFF703FC012286
:100E300029462046FFF7FEFB012231462046FFF7F8
:100E4000F9FB012239462046FFF7F4FB0122414617
:100E50002046FFF7EFFB012249462046FFF7EAFB59
:100E6000012251462046FFF7E5FB01225946204664
:100E7000FFF7E0FB2046BDE8F05F0122D103FFF75A
:100E8000D9BB0000000C0240001002402DE9F05FC9
:100E900000F014FB874C012211462046FFF7CAFBE5
:100EA0006420FFF7C5FA012202212046FFF7C2FBAA
:100EB0006420FFF7BDFA012204212046FFF7BAFBA8
:100EC0006420FFF7B5FA012208212046FFF7B2FBA4
:100ED0006420FFF7ADFA012210212046FFF7AAFB9C
:100EE0006420FFF7A5FA012220212046FFF7A2FB8C
:100EF0006420FFF79DFA012240212046FFF79AFB6C
:100F00006420FFF795FA012280212046FFF792FB2B
:100F10006420FFF78DFA0122150229462046FFF7CB
:100F200089FB6420FFF784FA0122560231462046ED
:100F3000FFF780FB6420FFF77BFA01229702394616
:100F40002046FFF777FB6420FFF772FA4FF4006842
:100F5000012241462046FFF76DFB6420FFF768FA47
:100F60004FF48059012249462046FFF763FB642075
:100F7000FFF75EFA4FF4005A012251462046FFF770
:100F800059FB6420FFF754FA4FF4804B0122594675
:100F90002046FFF74FFB6420FFF74AFA0122D103F6
:100FA0002046FFF747FB6420FFF742FA424C01223C
:100FB00011462046FFF73EFB6420FFF739FA012275
:100FC00002212046FFF736FB6420FFF731FA0122A9
:100FD00004212046FFF72EFB6420FFF729FA0122A7
:100FE00008212046FFF726FB6420FFF721FA0122A3
:100FF00010212046FFF71EFB6420FFF719FA01229B
:1010000020212046FFF716FB6420FFF711FA01228A
:1010100040212046FFF70EFB6420FFF709FA01226A
:1010200080212046FFF706FB6420FFF701FA01222A
:1010300029462046FFF7FEFA6420FFF7F9F901225E
:1010400031462046FFF7F6FA6420FFF7F1F9012256
:1010500039462046FFF7EEFA6420FFF7E9F901224E
:1010600041462046FFF7E6FA6420FFF7E1F9012246
:1010700049462046FFF7DEFA6420FFF7D9F901223E
:1010800051462046FFF7D6FA6420FFF7D1F9012236
:1010900059462046FFF7CEFA6420FFF7C9F901222E
:1010A000D1032046FFF7C6FABDE8F05F6420FFF7E2
:1010B000BFB90000000C0240001002402DE9F05FB3
:1010C00000F0FCF9D64C012211462046FFF7B2FA97
:1010D0006420FFF7ADF9002201212046FFF7AAFAAC
:1010E000012202212046FFF7A5FA6420FFF7A0F9AC
:1010F000002202212046FFF79DFA0122042120460A
:10110000FFF798FA6420FFF793F9002204212046A4
:10111000FFF790FA012208212046FFF78BFA64209E
:10112000FFF786F9002208212046FFF783FA012203
:1011300010212046FFF77EFA6420FFF779F900229C
:1011400010212046FFF776FA012220212046FFF7E2
:1011500071FA6420FFF76CF9002220212046FFF786
:1011600069FA012240212046FFF764FA6420FFF764
:101170005FF9002240212046FFF75CFA012280211E
:101180002046FFF757FA6420FFF752F9002280212A
:101190002046FFF74FFA0122150229462046FFF7A5
:1011A00049FA6420FFF744F9002229462046FFF758
:1011B00041FA0122560231462046FFF73BFA6420ED
:1011C000FFF736F9002231462046FFF733FA0122B5
:1011D000970239462046FFF72DFA6420FFF728F9D9
:1011E000002239462046FFF725FA4FF40068012215
:1011F00041462046FFF71EFA6420FFF719F9002246
:1012000041462046FFF716FA4FF48059012249461D
:101210002046FFF70FFA6420FFF70AF9002249463B
:101220002046FFF707FA4FF4005A012251462046A4
:10123000FFF700FA6420FFF7FBF800225146204632
:10124000FFF7F8F94FF4804B012259462046FFF78B
:10125000F1F96420FFF7ECF8002259462046FFF729
:10126000E9F90122D1032046FFF7E4F96420FFF7F2
:10127000DFF80022E9012046FFF7DCF901221146E0
:101280006848FFF7D7F96420FFF7D2F80022012160
:101290006448FFF7CFF9012202216248FFF7CAF93B
:1012A0006420FFF7C5F8002202215E48FFF7C2F96B
:1012B000012204215B48FFF7BDF96420FFF7B8F86D
:1012C000002204215748FFF7B5F9012208215548AB
:1012D000FFF7B0F96420FFF7ABF80022082151486E
:1012E000FFF7A8F9012210214E48FFF7A3F9642067
:1012F000FFF79EF8002210214A48FFF79BF90122D0
:1013000020214848FFF796F96420FFF791F8002262
:1013100020214448FFF78EF9012240214148FFF780
:1013200089F96420FFF784F8002240213D48FFF747
:1013300081F9012280213B48FFF77CF96420FFF707
:1013400077F8002280213748FFF774F901222946F7
:101350002046FFF76FF96420FFF76AF8002229465C
:101360002046FFF767F9012231462046FFF762F970
:101370006420FFF75DF8002231462046FFF75AF956
:10138000012239462046FFF755F96420FFF750F84F
:10139000002239462046FFF74DF9012241462046FA
:1013A000FFF748F96420FFF743F800224146204642
:1013B000FFF740F9012249462046FFF73BF9642038
:1013C000FFF736F8002249462046FFF733F901229D
:1013D00051462046FFF72EF96420FFF729F8002236
:1013E00051462046FFF726F9012259462046FFF7CD
:1013F00021F96420FFF71CF8002259462046FFF728
:1014000019F90122D1032046FFF714F96420FFF7F0
:101410000FF80022E9012046BDE8F05FFFF70AB9A6
:10142000000C024000100240FFF710B910B592B056
:1014300030216846FEF795FF14210CA8FEF791FFB6
:1014400018480024016841F080510160006800F0F4
:10145000805011901448016821F4404141F400414A
:1014600001600068069400F4404011900220009052
:1014700001200390102004906846FFF73FFA08B15E
:1014800072B6FEE70F20CDE90C040E940F940021F4
:101490000CA81094FFF766F9002801D072B6FEE799
:1014A00012B010BD40380240007000400248016890
:1014B00041F470010160704788ED00E02DE9F05FB4
:1014C000574C002201212046FFF7B4F800220221E8
:1014D0002046FFF7AFF8002204212046FFF7AAF8C4
:1014E000002208212046FFF7A5F8002210212046FF
:1014F000FFF7A0F8002220212046FFF79BF80022EA
:1015000040212046FFF796F8002280212046FFF771
:1015100091F8A515002229462046FFF78BF866159D
:10152000002231462046FFF785F82715002239466C
:101530002046FFF77FF84FF400680022414620461E
:10154000FFF778F84FF48059002249462046FFF70C
:1015500071F84FF4005A002251462046FFF76AF80E
:101560004FF4804B002259462046FFF763F80022D3
:10157000E9012046FFF75EF82A4C002201212046AF
:10158000FFF758F8002202212046FFF753F8002207
:1015900004212046FFF74EF8002208212046FFF7DD
:1015A00049F8002210212046FFF744F800222021AC
:1015B0002046FFF73FF8002240212046FFF73AF887
:1015C000002280212046FFF735F8002229462046D8
:1015D000FFF730F8002231462046FFF72BF80022B3
:1015E00039462046FFF726F8002241462046FFF7FD
:1015F00021F8002249462046FFF71CF800225146F8
:101600002046FFF717F8002259462046FFF712F848
:101610000022E9012046BDE8F05FFFF70BB80000AB
:10162000000C024000100240FEE70907090E0028E6
:1016300004DB00F1E02080F80014704700F00F0098
:1016400000F1E02080F8141D7047FFF707F8FFF75E
:10165000EDFEFFF71FFB4FF47A74FFF761FB2046A6
:10166000FEF7E6FEFFF72AFF2046FEF7E1FEFFF752
:101670000DFCFFF723FF2046FEF7DAFEFFF71EFD05
:10168000FFF71CFF2046FEF7D3FEE6E74FF0407061
:10169000E1EE100A704700000000000000000102A7
:1016A0000304060708090000C8160008000000200F
:1016B00010000000D0010008D8160008100000201B
:1016C00060060000EC0100080100000010000000AE
:0816D000000000000024F400FA
:040000050800019559
:00000001FF
